:020000040000FA
:100000000C9463000C948B000C948B000C948B006C
:100010000C948B000C948B000C948B000C94310787
:100020000C948B000C948B000C948B000C942F0878
:100030000C948B000C948B000C948B000C948B0014
:100040000C94E5070C948B000C94B3070C948D076B
:100050000C948B000C948B000C948B000C948B00F4
:100060000C948B000C948B000000000024002700EF
:100070002A000000000023002600290000000008DC
:10008000000201000003040700000000000000005F
:10009000010204081020408001020408102001021F
:1000A0000408102000000000250028002B00040494
:1000B0000404040404040202020202020303030310
:1000C00003030200EB0811241FBECFEFD8E0DEBF10
:1000D000CDBF11E0A0E0B1E0E6E4FAE102C0059096
:1000E0000D92A83AB107D9F722E0A8EAB1E001C021
:1000F0001D92A53BB207E1F710E0C3E6D0E004C0D3
:100100002197FE010E94120DC236D107C9F70E9445
:1001100084090C94210D0C940000AF92BF92CF92F1
:10012000DF92EF92FF920F931F93CF93DF936C01B7
:100130007B018B01040F151FEB015E01AE18BF0898
:10014000C017D10759F06991D601ED91FC9101904A
:10015000F081E02DC6010995892B79F7C501DF9162
:10016000CF911F910F91FF90EF90DF90CF90BF90B4
:10017000AF900895FC01538D448D252F30E0842FDE
:1001800090E0821B930B541710F0CF9608950197BF
:100190000895FC01918D828D981761F0A28DAE0FAC
:1001A000BF2FB11D5D968C91928D9F5F9F73928F33
:1001B00090E008958FEF9FEF0895FC01918D828D5F
:1001C000981731F0828DE80FF11D858D90E008952C
:1001D0008FEF9FEF0895FC01918D228D892F90E084
:1001E000805C9F4F821B91098F739927089583EC40
:1001F00091E00E94EB0021E0892B09F420E0822F9E
:10020000089580E090E0892B29F00E94F700811189
:100210000C9400000895FC01A48DA80FB92FB11D06
:10022000A35ABF4F2C91848D90E001968F7399272C
:10023000848FA689B7892C93A089B1898C9183700A
:1002400080648C93938D848D981306C00288F38903
:10025000E02D80818F7D80830895EF92FF920F9330
:100260001F93CF93DF93EC0181E0888F9B8D8C8D62
:1002700098131AC0E889F989808185FF15C09FB756
:10028000F894EE89FF896083E889F9898081837019
:10029000806480839FBF81E090E0DF91CF911F91C8
:1002A0000F91FF90EF900895F62E0B8D10E00F5FE9
:1002B0001F4F0F731127E02E8C8D8E110CC00FB6BF
:1002C00007FCFACFE889F989808185FFF5CFCE0157
:1002D0000E940B01F1CFEB8DEC0FFD2FF11DE35AC6
:1002E000FF4FF0829FB7F8940B8FEA89FB898081DA
:1002F0008062CFCFCF93DF93EC01888D8823B9F054
:10030000AA89BB89E889F9898C9185FD03C0808120
:1003100086FD0DC00FB607FCF7CF8C9185FFF2CF9D
:10032000808185FFEDCFCE010E940B01E9CFDF91E7
:10033000CF910895833081F028F4813099F0823094
:10034000A9F008958730A9F08830C9F08430B1F45D
:10035000809180008F7D03C0809180008F77809393
:100360008000089584B58F7784BD089584B58F7D0E
:10037000FBCF8091B0008F778093B000089580917B
:10038000B0008F7DF9CF1F93CF93DF93282F30E0FC
:10039000F901E458FF4F8491F901E057FF4FD491E0
:1003A000F901E255FF4FC491CC23A9F0162F81111A
:1003B0000E949A01EC2FF0E0EE0FFF1FEC55FF4F6B
:1003C000A591B4918FB7F894EC91111108C0D09514
:1003D000DE23DC938FBFDF91CF911F910895DE2B39
:1003E000F8CF9091000189130BC0E2ECF0E0E491AA
:1003F0009FEF90930001E13049F028F0E23061F086
:1004000060E00C94C30110926E00FACF90916F00DF
:100410009D7F90936F00F4CF909170009D7F90939B
:10042000700091E09093B0009091B100987F94603B
:100430009093B1001092B300E3CFCF93DF9390E09D
:10044000FC01E057FF4F249182559F4FFC0184919E
:100450008823D1F090E0880F991FFC01E859FF4FE5
:10046000A591B491FC01EC55FF4FC591D491623038
:1004700071F49FB7F8943C91822F809583238C93DD
:10048000E8812E2B28839FBFDF91CF9108958FB7EE
:10049000F894EC912E2B2C938FBFF6CF4F925F9256
:1004A0006F927F928F929F92AF92BF92CF92DF9284
:1004B000EF92FF920F931F93CF93DF9300D000D062
:1004C0001F92CDB7DEB78C0149835A836B837C833F
:1004D000809100018630C9F08F3F09F46EC00F9003
:1004E0000F900F900F900F90DF91CF911F910F9170
:1004F000FF90EF90DF90CF90BF90AF909F908F9044
:100500007F906F905F904F900895E2ECF0E08491BF
:100510008D8387FDE4CF61E086E00E941D028D811E
:10052000882321F09D81923009F075C14801B12CDA
:10053000A12C60E072E18AE790E0A50198010E9499
:10054000A30C29013A0160E472E48FE090E0A50178
:1005500098010E94A30C69017A0181E0C81AD108B0
:10056000E108F1089D81923009F098C08FEFC8161C
:10057000D104E104F10409F00CF44BC160E970ED21
:1005800083E090E0A50198010E94A30C69017A0123
:1005900091E0C91AD108E108F1088FEFC816D1041B
:1005A000E104F10411F00CF08CC183E09091B100F2
:1005B000987F892B8093B10005C186E0809300016C
:1005C000E2ECF0E094919D839F3F09F488CF913055
:1005D00029F158F0923009F43FC09D8197FD7FCFFB
:1005E00061E086E00E941D029DCF14BC15BC84B55D
:1005F000826084BD85B5816085BDE4EBF0E0E49167
:10060000F0E0EE0FFF1FEC55FF4F85919491E6E966
:10061000F0E0E491E093B6011D827DCF109280005E
:100620001092810080918100886080938100809188
:100630008100816080938100E4EBF0E0E491F0E0E0
:10064000EE0FFF1FEC55FF4F85919491E6E9F0E026
:10065000E491E093B5015FCF1092B0001092B10029
:100660008091B00082608093B0008091B100816081
:100670008093B100E4EBF0E0E491F0E0EE0FFF1FB7
:10068000EC55FF4F859194919093B4018093B30101
:10069000E6E9F0E0E491E093B2013DCF9FEFC916A7
:1006A000D104E104F10409F00CF484C068E478EEAC
:1006B00081E090E0A50198010E94A30C69017A01F4
:1006C00081E0C81AD108E108F1089D8184E0911108
:1006D0001AC09FEFC916D104E104F10411F00CF027
:1006E00042C093E06BC064E274EF80E090E0A5014B
:1006F00094010E94A30C69017A0181E0C81AD10813
:10070000E108F10885E09FEFC916D104E104F10486
:1007100009F008F44BCF62E17AE780E090E0A501B0
:1007200094010E94A30C69017A0181E0C81AD108E2
:10073000E108F10886E09FEFC916D104E104F10455
:1007400009F00CF433CF730162012AE0F594E794C9
:10075000D794C7942A95D1F781E0C81AD108E10847
:10076000F10887E023CF62E17AE780E090E0A5011D
:1007700094010E94A30C69017A0191E0C91AD10881
:10078000E108F10894E08FEFC816D104E104F10408
:10079000A9F0A4F0730162019AE0F594E794D7946C
:1007A000C7949A95D1F791E0C91AD108E108F108E8
:1007B00095E004C09D8191112CC092E085B5887FA1
:1007C000892B85BDD801AA0FBB1F29813A814B8196
:1007D0005C810E94C20C28EE33E040E050E00E94B1
:1007E000D50C8D81813009F44AC0823009F459C09A
:1007F000811175CEC7BC2093BF013093C0014093D7
:10080000C1015093C20180916E00826080936E009E
:1008100066CE82E0CBCEB12CA12C60E072E18AE7FB
:1008200090E0A50198010E94A30C69017A0181E082
:10083000C81AD108E108F108C114D10491E0E90611
:10084000F10464F491E08D81813009F0BBCF809197
:100850008100887F892B80938100B4CF68E478EE93
:1008600081E090E0A50198010E94A30C69017A0142
:1008700081E0C81AD108E108F10893E0E4CFD092F2
:100880008900C09288002093BB013093BC01409343
:10089000BD015093BE0180916F00826080936F0014
:1008A0001ECEC092B3002093B7013093B80140939D
:1008B000B9015093BA0180917000826080937000FA
:1008C0000ECE68E478EE81E090E0A50198010E94E8
:1008D000A30C69017A0191E0C91AD108E108F10875
:1008E0008FEFC816D104E104F10411F00CF0FBCE37
:1008F00084E05CCE3FB7F8948091AE019091AF0157
:10090000A091B001B091B10126B5A89B05C02F3FC1
:1009100019F00196A11DB11D3FBFBA2FA92F982F25
:100920008827BC01CD01620F711D811D911D42E020
:10093000660F771F881F991F4A95D1F708958F92E8
:100940009F92AF92BF92CF92DF92EF92FF924B01B4
:100950005C010E947A046B017C010E947A046C198C
:100960007D098E099F09683E734081059105A8F3B2
:1009700021E0821A9108A108B10888EEC80E83E030
:10098000D81EE11CF11C81149104A104B10429F7C3
:10099000FF90EF90DF90CF90BF90AF909F908F909F
:1009A0000895089590E080E008956115710579F04B
:1009B000FB0101900020E9F73197AF01461B570B6F
:1009C000DC01ED91FC910280F381E02D099490E02F
:1009D00080E00895CF93DF93EC0160E08E810E9468
:1009E000C30161E08E810E94C30160E08E810E949C
:1009F000C3018BE891E00197F1F7DF91CF91089562
:100A0000CF92DF92EF92FF920F931F93CF93DF93DA
:100A10006C017C0187E0E80EF11CD0E0C0E0062FFD
:100A200010E0B8010C2E02C0759567950A94E2F7A4
:100A30006170F70181917F010E94C3012196C4304A
:100A4000D10579F7C601DF91CF911F910F91FF90EA
:100A5000EF90DF90CF900C94EA04CF92DF92EF9268
:100A6000FF920F931F93CF93DF93EC01F62E642F29
:100A70008C810E94C3018D818F3F19F060E00E943C
:100A8000C3010F2D10E08F8584FF25C06E0187E024
:100A9000C80ED11CF12CE12CB8010E2C02C07595AA
:100AA00067950A94E2F76170F60181916F010E94E7
:100AB000C301FFEFEF1AFF0A88E0E816F10461F7BF
:100AC000CE01DF91CF911F910F91FF90EF90DF90BA
:100AD000CF900C94EA04B80184E0759567958A95E7
:100AE000E1F7CE010E9400056F2DCE01DF91CF917D
:100AF0001F910F91FF90EF90DF90CF900C94000525
:100B000041E00E942D0581E090E0089540E00C94C2
:100B10002D05DC015396EC91E23040F4E150E80FF2
:100B2000F92FF11D648960680C948605E1E0F7CF28
:100B300061E00E9486058BE39FE10197F1F708953C
:100B4000CF93DF93C5E8D2E0888199810E94980510
:100B50006FE171E0888199810E94D5048881998133
:100B60000E94890560E371E088819981DF91CF91CE
:100B70000C94D5040F931F93CF93DF938C01C5E89A
:100B8000D2E0888199810E94980561E471E08881B2
:100B900099810E94D504888199810E94890562E526
:100BA00071E0888199810E94D504B801888199817A
:100BB000DF91CF911F910F910C94D5040F931F9348
:100BC000CF93DF938C01C5E8D2E0888199810E94A0
:100BD000980568E571E0888199810E94D504888133
:100BE00099810E94890562E571E0888199810E945E
:100BF000D504B80188819981DF91CF911F910F9120
:100C00000C94D504CF93DF93C5E8D2E08881998115
:100C10000E94980569E671E0888199810E94D50457
:100C200048EE53E060E070E084E690E00E944E02FF
:100C300068EE73E080E090E00E949F0486E0DF9120
:100C4000CF910C94F101CF93DF93C5E8D2E0888176
:100C500099810E9498056AE771E0888199810E94D4
:100C6000D50448EE53E060E070E088E893E10E942C
:100C70004E0268EE73E080E090E00E949F0486E000
:100C8000DF91CF910C94F1010F931F93CF93DF93DA
:100C9000EC01623019F48F8588608F876B8B1C8A1A
:100CA00080E48D8B80E18E8B80E58F8B61E08C8181
:100CB0000E941D028D818F3F19F061E00E941D028C
:100CC00061E08E810E941D028E0198012C1B3D0B5C
:100CD0008F8584FD0DC084E090E00F5F1F4F2817C3
:100CE00039074CF461E0F80186810E941D02EDCFC6
:100CF00088E090E0F2CF8BE39DE00197F1F760E0B0
:100D00008C810E94C30160E08E810E94C3018D81AD
:100D10008F3F19F060E00E94C3016F8564FD34C00D
:100D200063E0CE010E9400050BE416E4C8010197C0
:100D3000F1F763E0CE010E940005C8010197F1F7C9
:100D400063E0CE010E94000583E592E00197F1F790
:100D500062E0CE010E9400056F856062CE010E94B4
:100D6000860584E0888B6CE0CE010E948605CE016A
:100D70000E94980582E0898B66E0CE01DF91CF91D9
:100D80001F910F910C9486056062CE010E9486052A
:100D90008BE496E40197F1F76F856062CE010E94C3
:100DA000860583E592E00197F1F76F856062CE01D9
:100DB0000E948605D1CFCF92DF92EF92FF920F93E0
:100DC0001F93CF93DF93EB017B0127E0E20EF11C31
:100DD0008B016C01C61AD70AC601800F911F0E94B1
:100DE0008D0CF80181938F01EE15FF05A9F7CE0157
:100DF000DF91CF911F910F91FF90EF90DF90CF90F7
:100E000008959F92AF92BF92CF92DF92EF92FF929E
:100E10000F931F93CF93DF935C017B018B01D0E095
:100E2000C0E0F80191908F016501CC0EDD1EC60176
:100E30000E948D0C981621F0692DC6010E94950C18
:100E40002196C730D10569F7C701DF91CF911F9176
:100E50000F91FF90EF90DF90CF90BF90AF909F9059
:100E600008951F920F920FB60F9211242F933F9364
:100E70004F935F936F937F938F939F93AF93BF93A2
:100E8000EF93FF938091B7019091B801A091B901C0
:100E9000B091BA01892B8A2B8B2BD1F19091B201A1
:100EA000E091B301F091B401808189278083809122
:100EB000B7019091B801A091B901B091BA0118168B
:100EC00019061A061B069CF48091B7019091B8018F
:100ED000A091B901B091BA010197A109B10980931C
:100EE000B7019093B801A093B901B093BA01FF91F3
:100EF000EF91BF91AF919F918F917F916F915F9192
:100F00004F913F912F910F900FBE0F901F9018950A
:100F1000809100010E94F101EACF1F920F920FB65B
:100F20000F9211242F933F934F935F936F937F936F
:100F30008F939F93AF93BF93EF93FF9383EC91E0D5
:100F40000E940B01FF91EF91BF91AF919F918F9103
:100F50007F916F915F914F913F912F910F900FBEB5
:100F60000F901F9018951F920F920FB60F92112499
:100F70002F938F939F93EF93FF93E091D301F09181
:100F8000D4018081E091D901F091DA0182FD1BC08A
:100F900090818091DC018F5F8F732091DD0182173A
:100FA00041F0E091DC01F0E0ED53FE4F958F80932E
:100FB000DC01FF91EF919F918F912F910F900FBEC8
:100FC0000F901F9018958081F4CF1F920F920FB64B
:100FD0000F9211242F933F938F939F93AF93BF93BF
:100FE0008091AA019091AB01A091AC01B091AD01AB
:100FF0003091A90123E0230F2D3758F50196A11D4B
:10100000B11D2093A9018093AA019093AB01A093F5
:10101000AC01B093AD018091AE019091AF01A09170
:10102000B001B091B1010196A11DB11D8093AE0137
:101030009093AF01A093B001B093B101BF91AF9174
:101040009F918F913F912F910F900FBE0F901F9006
:10105000189526E8230F0296A11DB11DD2CF1F922D
:101060000F920FB60F9211242F933F934F935F93DC
:101070006F937F938F939F93AF93BF93CF93DF93A0
:10108000EF93FF938091A801C0918402D0E087FF85
:1010900024C010928500109284008091A8018F5F77
:1010A0008093A8018091A801082E000C990B8C1741
:1010B0009D0724F48091A8018C30C4F180918400B4
:1010C00090918500049680349C4908F47AC0809100
:1010D000840090918500049676C08091A801082E26
:1010E000000C990B8C179D07C4F6E091A8018E2F78
:1010F000EE0F990BFC01EE0FFF1FE80FF91FE05AEE
:10110000FD4F808186FFC9CFE091A8018E2FEE0FA1
:10111000990BFC01EE0FFF1FE80FF91FE05AFD4F7E
:10112000808160E08F730E94C301B7CF209184005B
:1011300030918500E091A8018E2FEE0F990BFC01F4
:10114000EE0FFF1FE80FF91FE05AFD4F81819281DA
:10115000820F931F9093890080938800E091A801EB
:101160008E2FEE0F990BFC01EE0FFF1FE80FF91FFA
:10117000E05AFD4F808186FF11C0E091A8018E2FBB
:10118000EE0F990BFC01EE0FFF1FE80FF91FE05A5D
:10119000FD4F808161E08F730E94C301FF91EF9149
:1011A000DF91CF91BF91AF919F918F917F916F917F
:1011B0005F914F913F912F910F900FBE0F901F9015
:1011C000189580E49CE990938900809388008FEFC4
:1011D0008093A801E3CFCF931092C6011092C5016E
:1011E00088EE93E0A0E0B0E08093C7019093C8013F
:1011F000A093C901B093CA0185E091E09093C40126
:101200008093C30185EC90E09093D0018093CF014F
:1012100084EC90E09093D2018093D10180EC90E037
:101220009093D4018093D30181EC90E09093D60108
:101230008093D50182EC90E09093D8018093D70100
:1012400086EC90E09093DA018093D9011092DC0152
:101250001092DD011092DE011092DF011092A002C7
:1012600010929F0287E191E090939E0280939D02ED
:101270008CE08093A102CFEFC093A2028BE0809319
:10128000A3028AE08093A40289E08093A50288E00B
:101290008093A60287E08093A7021092A802109282
:1012A000A9021092AA021092AB021092AC0261E065
:1012B0008DE992E00E9444068DE992E090938602C7
:1012C00080938502809184028C30D8F491E0980F4D
:1012D000909384028093890290E0FC01EE0FFF1F3F
:1012E000E80FF91FE05AFD4F88EB9BE09283818362
:1012F00081E080939A0210929B0210929C02CF91FF
:101300000895C0938902F4CFCF93DF93CDB7DEB7B2
:1013100028970FB6F894DEBF0FBECDBF789484B582
:10132000826084BD84B5816084BD85B5826085BDE1
:1013300085B5816085BD80916E00816080936E006F
:101340001092810080918100826080938100809161
:101350008100816080938100809180008160809312
:1013600080008091B10084608093B1008091B000D2
:1013700081608093B00080917A00846080937A00CD
:1013800080917A00826080937A0080917A008160F7
:1013900080937A0080917A00806880937A0010921E
:1013A000C100E091D301F091D40182E08083E0910B
:1013B000CF01F091D0011082E091D101F091D201E2
:1013C00080E180831092DB01E091D701F091D80198
:1013D00086E08083E091D501F091D6018081806123
:1013E0008083E091D501F091D6018081886080836F
:1013F000E091D501F091D601808180688083E091F1
:10140000D501F091D60180818F7D808362E080914B
:101410008502909186020E944406809185029091F7
:101420008602FC016089262F2260208B6A600E9460
:101430008605809189028C3008F052C061E085E019
:101440000E941D02E09189028E2F90E0DC01AA0F1C
:10145000BB1FA80FB91FA05ABD4F8C91807C85601F
:101460008C938EE880938A0284E680938B022CE032
:101470008E2F622F0E94060D829FB001112430E052
:1014800020E0AB01420F531FDA01AA0FBB1FA40FCC
:10149000B51FA05ABD4F9C9196FD16C02F5F3F4FC0
:1014A0002C30310571F781110FC01092800082E05D
:1014B000809381001092850010928400B19A8091EF
:1014C0006F00826080936F008E2F90E0FC01EE0F22
:1014D000FF1FE80FF91FE05AFD4F80818064808371
:1014E00061E086E00E941D0262E084E00E941D022D
:1014F0000E94A0057CE8872E72E0972EE4EB4E2E2A
:10150000512C612C712CF3E02F2E312C83EC91E0C7
:101510000E94C900182F8F3F09F440C080918702B4
:10152000909188028230910509F4F1C060F400972F
:10153000E9F0019709F429C1143409F0E6C181E00A
:1015400080939A0221C08430910509F44DC108F4BA
:1015500001C1059789F7113409F0CBC087E0F40188
:1015600011928A95E9F782E090E0BDC0113409F04C
:10157000AFC087E0F40111928A95E9F781E090E02D
:10158000909388028093870280939C0244E650E007
:1015900060E070E080E197E20E944E0280919C0240
:1015A000882391F080918702909188028230910582
:1015B00009F47BC108F04AC1009709F46BC1019797
:1015C00009F46BC110929C0280919A0290919B0247
:1015D000891709F45FC0B0E0A0E0882311F0A4EB04
:1015E000B0E0F0918902F887FC3008F04FC080919C
:1015F0008B0248E5A42E42E0B42EA81AB10887FD5C
:10160000B394AA0CBB1CAA0CBB1C80918A0208E8EC
:1016100010E0081B110987FD1395000F111F000F23
:10162000111F6801012E000CEE08FF0895010B2C1C
:10163000000C440B550B2C193D094E095F090E9403
:10164000CD0CA30192010E94A30CBA01A9014C0D7B
:101650005D1D6E1D7F1D401751072CF085014A1539
:101660005B050CF48A0102501109000F111F2FB7FE
:10167000F8943885832F90E0FC01EE0FFF1FE80FF0
:10168000F91FE05AFD4F128301832FBF80919A0208
:1016900080939B02E0E8F0E08491E4E9F0E00491BB
:1016A000E2EBF0E01491111108C180919A0202E37B
:1016B00010E0811112C180E090E0892B09F426CF5F
:1016C0000E94F700882309F421CF0E9400001ECF5A
:1016D000123409F031CF87E0E3E9F2E011928A9504
:1016E000E9F784E090E0909388028093870281E09C
:1016F0004BCF123409F020CF87E0E3E9F2E01192FA
:101700008A95E9F73092880220928702F0CF80ED27
:10171000810F8A3008F010CFF40101900020E9F722
:10172000CF018D5892408630910580F4FC01EB5733
:10173000FD4F1783059751F46CE872E090E080E06C
:101740000E940107109288021092870281E0809324
:101750009C02F2CE80ED810F8A3008F0EDCEE3E9F5
:10176000F2E001900020E9F7CF01845992408630E1
:10177000910560F7FC01EB57FD4F1687059731F790
:1017800063E972E087E090E0DBCF80ED810F8A3083
:1017900008F0D2CEF40101900020E9F7CF018D5876
:1017A00092408630910590F6FC01EB57FD4F178370
:1017B000059761F6BE016F5F7F4F90E080E00E9469
:1017C000DB066CE872E0CE0101960E94180D892BB1
:1017D00029F410929A020E942306B4CF81E08093EC
:1017E0009A020E940206AECF80ED810F8A3008F087
:1017F000A3CEE3E9F2E001900020E9F7CF0184599C
:1018000092406C0196E0C916D10408F09FCFF60112
:10181000EB57FD4F1687E5E0CE16D10409F096CFC1
:10182000BE016F5F7F4F87E090E00E94DB0663E9B7
:1018300072E0CE0101960E94180D892B91F60E944C
:101840002306D0928802C092870280CF843091050F
:1018500049F180F1059709F0B5CE8091850290910C
:1018600086020E9498056BE871E080918502909154
:1018700086020E94D50480918502909186020E9482
:10188000890569E971E080918502909186020E9444
:10189000D50498CE0E94A00595CE8CE892E00E94D7
:1018A000BA0590CE83E992E0FACF8CE892E00E94EC
:1018B000DE0588CE83E992E0FACF81110E949A0179
:1018C000E12FF0E0EE0FFF1FEE58FF4FA591B4910E
:1018D0008C91082309F4E9CEEECE61E086E00E9407
:1018E000C30164E670E080E090E00E949F0460E045
:1018F00086E00E94C30164E670E080E090E00E9410
:101900009F040150110949F7D6CE133409F03ECE99
:101910001092880210928702EACEF999FECF92BD0A
:1019200081BDF89A992780B50895262FF999FECFA1
:101930001FBA92BD81BD20BD0FB6F894FA9AF99AEC
:101940000FBE01960895052E97FB1EF400940E9489
:10195000BA0C57FD07D00E94D50C07FC03D04EF4FB
:101960000C94BA0C50954095309521953F4F4F4FB0
:101970005F4F089590958095709561957F4F8F4F3B
:101980009F4F08950E94F70CA59F900DB49F900D56
:10199000A49F800D911D11240895B7FF0C94C20CD3
:1019A0000E94C20C821B930B0895A1E21A2EAA1B5F
:1019B000BB1BFD010DC0AA1FBB1FEE1FFF1FA217FF
:1019C000B307E407F50720F0A21BB30BE40BF50BFC
:1019D000661F771F881F991F1A9469F76095709585
:1019E000809590959B01AC01BD01CF010895A29F08
:1019F000B001B39FC001A39F700D811D1124911DE3
:101A0000B29F700D811D1124911D0895991B79E0DD
:101A100004C0991F961708F0961B881F7A95C9F77E
:101A200080950895EE0FFF1F0590F491E02D099425
:101A3000FB01DC018D91019080190110D9F3990B04
:101A40000895F894FFCFFF000000002D018D00BA2B
:101A5000007A01EB00C900DD000000000080058D68
:101A600000D204D104202020534D415254204C4F29
:101A7000434B20202000412D554E4C4F434B7C4280
:101A80002D41444D494E00456E746572207061735E
:101A900073776F72643A20002020202020002020DD
:101AA0005365742070617373776F72643A200020FD
:101AB00057524F4E472050415353574F52442000E6
:101AC000434F52524543542050415353574F524471
:101AD0000041202D20555345522050415353004280
:0E1AE000202D2041444D494E205041535300CB
:107E0000112484B714BE81FFF0D085E080938100F7
:107E100082E08093C00088E18093C10086E0809377
:107E2000C20080E18093C4008EE0C9D0259A86E02C
:107E300020E33CEF91E0309385002093840096BBD3
:107E4000B09BFECF1D9AA8958150A9F7CC24DD24C4
:107E500088248394B5E0AB2EA1E19A2EF3E0BF2EE7
:107E6000A2D0813461F49FD0082FAFD0023811F036
:107E7000013811F484E001C083E08DD089C08234E0
:107E800011F484E103C0853419F485E0A6D080C0E4
:107E9000853579F488D0E82EFF2485D0082F10E0AE
:107EA000102F00270E291F29000F111F8ED06801E7
:107EB0006FC0863521F484E090D080E0DECF843638
:107EC00009F040C070D06FD0082F6DD080E0C81688
:107ED00080E7D80618F4F601B7BEE895C0E0D1E017
:107EE00062D089930C17E1F7F0E0CF16F0E7DF06D8
:107EF00018F0F601B7BEE89568D007B600FCFDCFD4
:107F0000A601A0E0B1E02C9130E011968C91119780
:107F100090E0982F8827822B932B1296FA010C0160
:107F200087BEE89511244E5F5F4FF1E0A038BF0790
:107F300051F7F601A7BEE89507B600FCFDCF97BE46
:107F4000E89526C08437B1F42ED02DD0F82E2BD052
:107F50003CD0F601EF2C8F010F5F1F4F84911BD097
:107F6000EA94F801C1F70894C11CD11CFA94CF0C13
:107F7000D11C0EC0853739F428D08EE10CD085E9AC
:107F80000AD08FE07ACF813511F488E018D01DD067
:107F900080E101D065CF982F8091C00085FFFCCF94
:107FA0009093C60008958091C00087FFFCCF809118
:107FB000C00084FD01C0A8958091C6000895E0E648
:107FC000F0E098E1908380830895EDDF803219F02E
:107FD00088E0F5DFFFCF84E1DECF1F93182FE3DFCA
:107FE0001150E9F7F2DF1F91089580E0E8DFEE27F6
:047FF000FF270994CA
:027FFE00040479
:00000001FF
